{
  "library/Ownable.sol": {
    "Ownable": {
      "abi": [
        {
          "inputs": [],
          "stateMutability": "nonpayable",
          "type": "constructor"
        },
        {
          "anonymous": false,
          "inputs": [
            {
              "indexed": true,
              "internalType": "address",
              "name": "account",
              "type": "address"
            }
          ],
          "name": "MinterAdded",
          "type": "event"
        },
        {
          "anonymous": false,
          "inputs": [
            {
              "indexed": true,
              "internalType": "address",
              "name": "account",
              "type": "address"
            }
          ],
          "name": "MinterRemoved",
          "type": "event"
        },
        {
          "inputs": [
            {
              "internalType": "address",
              "name": "account",
              "type": "address"
            }
          ],
          "name": "addMinter",
          "outputs": [],
          "stateMutability": "nonpayable",
          "type": "function"
        },
        {
          "inputs": [
            {
              "internalType": "address",
              "name": "account",
              "type": "address"
            }
          ],
          "name": "isMinter",
          "outputs": [
            {
              "internalType": "bool",
              "name": "",
              "type": "bool"
            }
          ],
          "stateMutability": "view",
          "type": "function"
        },
        {
          "inputs": [],
          "name": "renounceMinter",
          "outputs": [],
          "stateMutability": "nonpayable",
          "type": "function"
        }
      ],
      "devdoc": {
        "kind": "dev",
        "methods": {},
        "version": 1
      },
      "evm": {
        "bytecode": {
          "linkReferences": {},
          "object": "608060405234801561001057600080fd5b5061002933600061002e60201b6100fd1790919060201c565b610066565b6001600160a01b03811661004157600080fd5b6001600160a01b0316600090815260209190915260409020805460ff19166001179055565b610203806100756000396000f3fe608060405234801561001057600080fd5b50600436106100415760003560e01c8063983b2d5614610046578063986502751461005b578063aa271e1a14610063575b600080fd5b61005961005436600461019f565b61008a565b005b6100596100de565b61007661007136600461019f565b6100eb565b604051901515815260200160405180910390f35b610093336100eb565b61009c57600080fd5b6100a76000826100fd565b6040516001600160a01b038216907f6ae172837ea30b801fbfcdd4108aa1d5bf8ff775444fd70256b44e6bf3dfc3f690600090a250565b6100e9600033610135565b565b60006100f7818361016a565b92915050565b6001600160a01b03811661011057600080fd5b6001600160a01b0316600090815260209190915260409020805460ff19166001179055565b6001600160a01b03811661014857600080fd5b6001600160a01b0316600090815260209190915260409020805460ff19169055565b60006001600160a01b03821661017f57600080fd5b506001600160a01b03166000908152602091909152604090205460ff1690565b6000602082840312156101b0578081fd5b81356001600160a01b03811681146101c6578182fd5b939250505056fea2646970667358221220ec853b0824305954b56e47e25d1537a951a58c0d78612456114e59edbde84f8564736f6c63430008040033",
          "opcodes": "PUSH1 0x80 PUSH1 0x40 MSTORE CALLVALUE DUP1 ISZERO PUSH2 0x10 JUMPI PUSH1 0x0 DUP1 REVERT JUMPDEST POP PUSH2 0x29 CALLER PUSH1 0x0 PUSH2 0x2E PUSH1 0x20 SHL PUSH2 0xFD OR SWAP1 SWAP2 SWAP1 PUSH1 0x20 SHR JUMP JUMPDEST PUSH2 0x66 JUMP JUMPDEST PUSH1 0x1 PUSH1 0x1 PUSH1 0xA0 SHL SUB DUP2 AND PUSH2 0x41 JUMPI PUSH1 0x0 DUP1 REVERT JUMPDEST PUSH1 0x1 PUSH1 0x1 PUSH1 0xA0 SHL SUB AND PUSH1 0x0 SWAP1 DUP2 MSTORE PUSH1 0x20 SWAP2 SWAP1 SWAP2 MSTORE PUSH1 0x40 SWAP1 KECCAK256 DUP1 SLOAD PUSH1 0xFF NOT AND PUSH1 0x1 OR SWAP1 SSTORE JUMP JUMPDEST PUSH2 0x203 DUP1 PUSH2 0x75 PUSH1 0x0 CODECOPY PUSH1 0x0 RETURN INVALID PUSH1 0x80 PUSH1 0x40 MSTORE CALLVALUE DUP1 ISZERO PUSH2 0x10 JUMPI PUSH1 0x0 DUP1 REVERT JUMPDEST POP PUSH1 0x4 CALLDATASIZE LT PUSH2 0x41 JUMPI PUSH1 0x0 CALLDATALOAD PUSH1 0xE0 SHR DUP1 PUSH4 0x983B2D56 EQ PUSH2 0x46 JUMPI DUP1 PUSH4 0x98650275 EQ PUSH2 0x5B JUMPI DUP1 PUSH4 0xAA271E1A EQ PUSH2 0x63 JUMPI JUMPDEST PUSH1 0x0 DUP1 REVERT JUMPDEST PUSH2 0x59 PUSH2 0x54 CALLDATASIZE PUSH1 0x4 PUSH2 0x19F JUMP JUMPDEST PUSH2 0x8A JUMP JUMPDEST STOP JUMPDEST PUSH2 0x59 PUSH2 0xDE JUMP JUMPDEST PUSH2 0x76 PUSH2 0x71 CALLDATASIZE PUSH1 0x4 PUSH2 0x19F JUMP JUMPDEST PUSH2 0xEB JUMP JUMPDEST PUSH1 0x40 MLOAD SWAP1 ISZERO ISZERO DUP2 MSTORE PUSH1 0x20 ADD PUSH1 0x40 MLOAD DUP1 SWAP2 SUB SWAP1 RETURN JUMPDEST PUSH2 0x93 CALLER PUSH2 0xEB JUMP JUMPDEST PUSH2 0x9C JUMPI PUSH1 0x0 DUP1 REVERT JUMPDEST PUSH2 0xA7 PUSH1 0x0 DUP3 PUSH2 0xFD JUMP JUMPDEST PUSH1 0x40 MLOAD PUSH1 0x1 PUSH1 0x1 PUSH1 0xA0 SHL SUB DUP3 AND SWAP1 PUSH32 0x6AE172837EA30B801FBFCDD4108AA1D5BF8FF775444FD70256B44E6BF3DFC3F6 SWAP1 PUSH1 0x0 SWAP1 LOG2 POP JUMP JUMPDEST PUSH2 0xE9 PUSH1 0x0 CALLER PUSH2 0x135 JUMP JUMPDEST JUMP JUMPDEST PUSH1 0x0 PUSH2 0xF7 DUP2 DUP4 PUSH2 0x16A JUMP JUMPDEST SWAP3 SWAP2 POP POP JUMP JUMPDEST PUSH1 0x1 PUSH1 0x1 PUSH1 0xA0 SHL SUB DUP2 AND PUSH2 0x110 JUMPI PUSH1 0x0 DUP1 REVERT JUMPDEST PUSH1 0x1 PUSH1 0x1 PUSH1 0xA0 SHL SUB AND PUSH1 0x0 SWAP1 DUP2 MSTORE PUSH1 0x20 SWAP2 SWAP1 SWAP2 MSTORE PUSH1 0x40 SWAP1 KECCAK256 DUP1 SLOAD PUSH1 0xFF NOT AND PUSH1 0x1 OR SWAP1 SSTORE JUMP JUMPDEST PUSH1 0x1 PUSH1 0x1 PUSH1 0xA0 SHL SUB DUP2 AND PUSH2 0x148 JUMPI PUSH1 0x0 DUP1 REVERT JUMPDEST PUSH1 0x1 PUSH1 0x1 PUSH1 0xA0 SHL SUB AND PUSH1 0x0 SWAP1 DUP2 MSTORE PUSH1 0x20 SWAP2 SWAP1 SWAP2 MSTORE PUSH1 0x40 SWAP1 KECCAK256 DUP1 SLOAD PUSH1 0xFF NOT AND SWAP1 SSTORE JUMP JUMPDEST PUSH1 0x0 PUSH1 0x1 PUSH1 0x1 PUSH1 0xA0 SHL SUB DUP3 AND PUSH2 0x17F JUMPI PUSH1 0x0 DUP1 REVERT JUMPDEST POP PUSH1 0x1 PUSH1 0x1 PUSH1 0xA0 SHL SUB AND PUSH1 0x0 SWAP1 DUP2 MSTORE PUSH1 0x20 SWAP2 SWAP1 SWAP2 MSTORE PUSH1 0x40 SWAP1 KECCAK256 SLOAD PUSH1 0xFF AND SWAP1 JUMP JUMPDEST PUSH1 0x0 PUSH1 0x20 DUP3 DUP5 SUB SLT ISZERO PUSH2 0x1B0 JUMPI DUP1 DUP2 REVERT JUMPDEST DUP2 CALLDATALOAD PUSH1 0x1 PUSH1 0x1 PUSH1 0xA0 SHL SUB DUP2 AND DUP2 EQ PUSH2 0x1C6 JUMPI DUP2 DUP3 REVERT JUMPDEST SWAP4 SWAP3 POP POP POP JUMP INVALID LOG2 PUSH5 0x6970667358 0x22 SLT KECCAK256 0xEC DUP6 EXTCODESIZE ADDMOD 0x24 ADDRESS MSIZE SLOAD 0xB5 PUSH15 0x47E25D1537A951A58C0D7861245611 0x4E MSIZE 0xED 0xBD 0xE8 0x4F DUP6 PUSH5 0x736F6C6343 STOP ADDMOD DIV STOP CALLER "
        },
        "gasEstimates": {
          "creation": {
            "codeDepositCost": "103000",
            "executionCost": "infinite",
            "totalCost": "infinite"
          },
          "external": {
            "addMinter(address)": "23418",
            "isMinter(address)": "1325",
            "renounceMinter()": "21116"
          },
          "internal": {
            "_removeMinter(address)": "infinite"
          }
        },
        "methodIdentifiers": {
          "addMinter(address)": "983b2d56",
          "isMinter(address)": "aa271e1a",
          "renounceMinter()": "98650275"
        }
      },
      "storageLayout": {
        "storage": [
          {
            "astId": 649,
            "contract": "library/Ownable.sol:Ownable",
            "label": "minters",
            "offset": 0,
            "slot": "0",
            "type": "t_struct(Role)738_storage"
          }
        ],
        "types": {
          "t_address": {
            "encoding": "inplace",
            "label": "address",
            "numberOfBytes": "20"
          },
          "t_bool": {
            "encoding": "inplace",
            "label": "bool",
            "numberOfBytes": "1"
          },
          "t_mapping(t_address,t_bool)": {
            "encoding": "mapping",
            "key": "t_address",
            "label": "mapping(address => bool)",
            "numberOfBytes": "32",
            "value": "t_bool"
          },
          "t_struct(Role)738_storage": {
            "encoding": "inplace",
            "label": "struct Roles.Role",
            "members": [
              {
                "astId": 737,
                "contract": "library/Ownable.sol:Ownable",
                "label": "bearer",
                "offset": 0,
                "slot": "0",
                "type": "t_mapping(t_address,t_bool)"
              }
            ],
            "numberOfBytes": "32"
          }
        }
      },
      "userdoc": {
        "kind": "user",
        "methods": {},
        "version": 1
      }
    }
  }
}